:0400000081EF00F09C
:10000800B613B613B613B6134000B6134000651105
:10001800B613B613B613B613B613B613B613B61390
:10002800B613400040004000B613B613B613B6131B
:10003800B613B613B613B613B613B613B613F51133
:10004800B613B613B613B61340004000B613B61372
:10005800B613B613B6134000B613B613B613B613D9
:10006800B613B613B613B613B613B613B613B61340
:10007800B613B613B613B6134000B613B613B613B9
:10008800B613B613B613B613B613B613B613B61320
:10009800B613B613B613B6134000B61340004000AB
:1000A800B613B613B613B613B613B613B613B61300
:1000B800B613B613B613B613B613B613B613B613F0
:1000C800B613B613B613B613B613B613B613B613E0
:1000D800B613B613B613B613B613B613B613B613D0
:1000E8004000B613B613B61340004000400040006D
:0E00F800B613B613B613B613FF00A6EF25F02D
:10250000001D306D79335B5F707F7B771F4E3D4FD1
:10251000470D0A54443420524F4D20656D756C614F
:10252000746F7220616E64206D6F6E69746F7220BB
:1025300025322E3266487A0D0A00494E46004E4139
:102540004E00696E66006E616E006C660000000EE3
:10255000986F000E976F79C5A9F57AC5AAF57BC566
:10256000ABF57CC5ACF5ACAF16D0000E986F010E84
:10257000976FA9C517F5AAC518F5ABC519F5ACC570
:102580001AF5FAEC26F017C5A9F518C5AAF519C56C
:10259000ABF51AC5ACF5000EB06F000EAF6FEAC513
:1025A0009BF5EBC59CF597519811D8A402D043A494
:1025B00013D097519811D8A404D0000E846F2B0E1D
:1025C00003D0000E846F2D0E836F83C500F6AF4BD2
:1025D000B02B9B07D8A09C07A9C517F5AAC518F56D
:1025E000ABC519F5ACC51AF563EC22F01704181049
:1025F000D8A447D0BF0E05017E6FFF0E7F6F7D51BF
:10260000806F816B7E5180277F518123815113E13F
:102610001A0E805DD8B00FD0000EAF25176E060ED3
:10262000B021186E3A0E196E1950D8A4250E1A6EE4
:1026300078EC25F00ED0000EAF25176E060EB021F7
:10264000186E420E196E1950D8A4250E1A6E78EC29
:1026500025F00501FD0E9B27FF0E9C2377C528F56D
:1026600078C529F5000E2A6E060E2B6E9BC52CF53B
:102670009CC52DF538EC24F028C577F529C578F5EB
:102680001200A9C517F5AAC518F5ABC519F5ACC553
:102690001AF563EC22F017501810D8A447D0BF0EDB
:1026A00005017E6FFF0E7F6F7D51806F816B7E51C4
:1026B00080277F518123815113E11A0E805DD8B0AC
:1026C0000FD0000EAF25176E060EB021186E3E0E0D
:1026D000196E1950D8A4250E1A6E78EC25F00ED07C
:1026E000000EAF25176E060EB021186E460E196E3D
:1026F0001950D8A4250E1A6E78EC25F00501FD0EB0
:102700009B27FF0E9C2377C528F578C529F5000E79
:102710002A6E060E2B6E9BC52CF59CC52DF538EC4C
:1027200024F028C577F529C578F51200000E0501BB
:10273000B16F000EB26F800EB36F3F0EB46F000E1C
:10274000AE6F000EAD6FA9C517F5AAC518F5ABC5DC
:1027500019F5ACC51AF5000E1B6E000E1C6E000EAE
:102760001D6E000E1E6E83EC24F0D8A01ED075D016
:10277000B1C517F5B2C518F5B3C519F5B4C51AF545
:10278000000E1B6E000E1C6E200E1D6E410E1E6E86
:1027900040EC1AF017C5B1F518C5B2F519C5B3F577
:1027A0001AC5B4F50501AD4BAE2BA9C530F5AAC5C8
:1027B00031F5ABC532F5ACC533F5000E1B6E000E1E
:1027C0001C6E200E1D6E410E1E6EB1C517F5B2C5F2
:1027D00018F5B3C519F5B4C51AF540EC1AF017C5CC
:1027E00034F518C535F519C536F51AC537F5FAECBF
:1027F00021F0D8A01ED0BCD7B1C525F5B2C526F5AD
:10280000B3C527F5B4C528F5000E296E000E2A6E53
:10281000200E2B6E410E2C6E6EEC1DF025C5B1F511
:1028200026C5B2F527C5B3F528C5B4F5AD07D8A0C0
:10283000AE07A9C530F5AAC531F5ABC532F5ACC5B3
:1028400033F5B1C534F5B2C535F5B3C536F5B4C504
:1028500037F5FAEC21F0D8A0CFD77DC51DF51E6A5B
:1028600040EC26F01D509E6F9EC59DF5670E9E198B
:10287000D8A419D0EC51ED11D8A404D0000EED6FFE
:10288000010EEC6FEDBF05D0ED5108E1EC05D8B0BD
:1028900005D0000E9A6F060E996F08D0ECC599F519
:1028A000EDC59AF503D0EDAFF9D7F3D7670E9E19B2
:1028B000D8A422D0AEAF06D0FC0EAD5DFF0EAE594F
:1028C000D8A018D0FF0E7E6FFF0E7F6F99C580F5E0
:1028D0009AC581F57E5180277F518123AD51805D5E
:1028E0008151800A826FAE51800A8259D8A002D0ED
:1028F000660E01D0650E9D6F99C58FF59AC590F54E
:10290000670E9E19D8A405D0660E9D19D8B4AEAF37
:1029100002D08F4B902B660E9D19D8A416D0AEAF67
:102920000CD0000EB16F000EB26F800EB36F3F0E71
:10293000B46F000EAE6F000EAD6F670E9E19D8B467
:1029400004D0AD518F27AE519023000EA86F000E1A
:10295000A76FA9C59FF5AAC5A0F5ABC5A1F5ACC5E4
:10296000A2F5B1C591F5B2C592F5B3C593F5B4C55D
:1029700094F57AD09FC525F5A0C526F5A1C527F504
:10298000A2C528F5B1C529F5B2C52AF5B3C52BF501
:10299000B4C52CF56EEC1DF025C531F526C532F514
:1029A00027C533F528C534F5ECEC1FF031C5A3F588
:1029B00032C5A4F533C5A5F534C5A6F5A3C517F5ED
:1029C000A4C518F5A5C519F5A6C51AF58CEC23F014
:1029D00017C595F518C596F59FC530F5A0C531F515
:1029E000A1C532F5A2C533F5B1C51BF5B2C51CF5BD
:1029F000B3C51DF5B4C51EF5A3C517F5A4C518F5D7
:102A0000A5C519F5A6C51AF540EC1AF017C534F599
:102A100018C535F519C536F51AC537F5FEEC25F09C
:102A200030C59FF531C5A0F532C5A1F533C5A2F576
:102A3000B1C525F5B2C526F5B3C527F5B4C528F54A
:102A4000000E296E000E2A6E200E2B6E410E2C6E8B
:102A50006EEC1DF025C5B1F526C5B2F527C5B3F559
:102A600028C5B4F5A74BA82B8F51A75DA851800AA4
:102A70007E6F9051800A7E59D8A07CD7B1C517F5DA
:102A8000B2C518F5B3C519F5B4C51AF5000E1B6E1D
:102A9000000E1C6EA00E1D6E400E1E6E40EC1AF055
:102AA00017C5A3F518C5A4F519C5A5F51AC5A6F54A
:102AB0009FC530F5A0C531F5A1C532F5A2C533F5E6
:102AC000A3C534F5A4C535F5A5C536F5A6C537F5B6
:102AD000FAEC21F0D8A015D09FC517F5A0C518F5C0
:102AE000A1C519F5A2C51AF5A3C51BF5A4C51CF50A
:102AF000A5C51DF5A6C51EF583EC24F0D8B095B18B
:102B000008D0000EA36F000EA46F000EA56F000E7C
:102B1000A66FA9C517F5AAC518F5ABC519F5ACC5BB
:102B20001AF5A3C51BF5A4C51CF5A5C51DF5A6C5BD
:102B30001EF5E8EC1BF017C59FF518C5A0F519C5E3
:102B4000A1F51AC5A2F59FC530F5A0C531F5A1C5FF
:102B500032F5A2C533F5000E1B6E000E1C6E200E62
:102B60001D6E410E1E6E91C517F592C518F593C5E1
:102B700019F594C51AF540EC1AF017C534F518C5C7
:102B800035F519C536F51AC537F5FAEC21F0D8A098
:102B900023D0AD4BAE2B91C517F592C518F593C553
:102BA00019F594C51AF5000E1B6E000E1C6E200E52
:102BB0001D6E410E1E6E40EC1AF017C591F518C53A
:102BC00092F519C593F51AC594F5660E05019D1980
:102BD000D8A402D08F4B902B91C5B1F592C5B2F518
:102BE00093C5B3F594C5B4F5650E9D19D8B405D059
:102BF000ADC58DF5AEC58EF504D0000E8E6F000EFE
:102C00008D6F000E8C6F000E8B6F000E8A6F000EA2
:102C1000896F000EA86F000EA76FC4D09FC525F561
:102C2000A0C526F5A1C527F5A2C528F5B1C529F58A
:102C3000B2C52AF5B3C52BF5B4C52CF56EEC1DF065
:102C400025C531F526C532F527C533F528C534F538
:102C5000ECEC1FF031C5A3F532C5A4F533C5A5F5DD
:102C600034C5A6F5A3C517F5A4C518F5A5C519F56E
:102C7000A6C51AF58CEC23F017C595F518C596F581
:102C800043B80CD095519611D8A408D0670E9E1960
:102C9000D8B48EAF03D0894B8A2B39D08B518C118D
:102CA000D8B48EAF22D0000EAF25D96E060EB0215B
:102CB000DA6E2E0EDF6EAF4BB02B9B07D8A09C07B1
:102CC000000E8C6F010E8B6F10D0000EAF25D96EE9
:102CD000060EB021DA6E300EDF6EAF4BB02B9B07C5
:102CE000D8A09C078907D8A08A0789518A11D8A43F
:102CF000ECD7000EAF25D96E060EB021DA6E9551D5
:102D0000300FDF6EAF4BB02B9B07D8A09C079FC541
:102D100030F5A0C531F5A1C532F5A2C533F5B1C571
:102D20001BF5B2C51CF5B3C51DF5B4C51EF5A3C58D
:102D300017F5A4C518F5A5C519F5A6C51AF540ECF3
:102D40001AF017C534F518C535F519C536F51AC585
:102D500037F5FEEC25F030C59FF531C5A0F532C53D
:102D6000A1F533C5A2F5B1C525F5B2C526F5B3C5A4
:102D700027F5B4C528F5000E296E000E2A6E200E28
:102D80002B6E410E2C6E6EEC1DF025C5B1F526C5DF
:102D9000B2F527C5B3F528C5B4F58D07D8A08E07C1
:102DA000A74BA82B8F51A75DA851800A7E6F905129
:102DB000800A7E59D8B008D0B0BF30D7B05104E1F6
:102DC0004B0EAF5DD8A02AD78B518C11D8B443A835
:102DD0000AD0000EAF25D96E060EB021DA6E2E0E87
:102DE000DF6EAF4BB02B000EAF25D96E060EB021B3
:102DF000DA6E000EDF6E650E9D19D8A4A5D0000E08
:102E0000A86F4F0EA76F000EA725D96E060EA8213A
:102E1000DA6E000EDF6E000E986F000E976FAEAF89
:102E200008D0000E986F010E976FAD6DAE1FD8B031
:102E3000AE2B000E9A6F020E996F2AD0A707D8A06A
:102E4000A807000EA725D96E060EA821DA6EADC51B
:102E500017F5AEC518F5000E1A6E0A0E196E0AECBB
:102E600025F01750300FDF6EADC517F5AEC518F55C
:102E7000000E1A6E0A0E196EC8EC24F017C5ADF5D7
:102E800018C5AEF59907D8A09A079B07D8A09C074C
:102E9000AD51AE11D8A4D2D79ABF05D09A51CEE188
:102EA0009905D8B0CBD7A707D8A0A80797519811F4
:102EB000D8A404D0000E866F2B0E03D0000E866FB0
:102EC0002D0E856F000EA725D96E060EA821DA6E8D
:102ED000610014F6DFF49B07D8A09C07A707D8A0D1
:102EE000A807BF0E7E6FFF0E7F6F7D51806F816BD5
:102EF0007E5180277F518123815104E11A0E805D2C
:102F0000D8A004D0000E886F650E03D0000E886F25
:102F1000450E876F000EA725D96E060EA821DA6E22
:102F200061001CF6DFF49B07D8A09C07000EAF25BC
:102F3000176E060EB021186E000EA725196E060E2C
:102F4000A8211A6E78EC25F077C528F578C529F503
:102F5000000E2A6E060E2B6E9BC52CF59CC52DF51A
:102F600038EC24F028C577F529C578F51200610002
:102F7000DCF6D9F46100E0F6DAF4DFC4F6F4250EED
:102F8000F76E000EF86E0800F550250AD8A45AD244
:102F90006100DCF6D9F46100E0F6DAF4DF2A000E15
:102FA000EB6F000EEA6FEAC543F5EBC544F5EC693B
:102FB000ED696100DCF6D9F46100E0F6DAF4DFC413
:102FC000F6F4250EF76E000EF86E0800F5502A0A8A
:102FD000D8A42BD06100DCF6D9F46100E0F6DAF475
:102FE000DF2A6100E4F6D9F46100E8F6DAF4610062
:102FF0007CF3BBF5020EDE2661007CF3BCF5000E0F
:10300000DD226100ECF6D9F46100F0F6DAF461003B
:1030100078F3EAF5610074F3EBF5EBAF3BD0438056
:10302000EA6DEB1FD8B0EB2B35D06100DCF6D9F49C
:103030006100E0F6DAF4DF501E6E61EC21F01EC58F
:10304000EAF51FC5EBF507D06100DCF6D9F46100A5
:10305000E0F6DAF4DF2AD00E0501BB6FFF0EBC6F7D
:103060006100DCF6D9F46100E0F6DAF4DFC4F6F4CE
:10307000250EF76E000EF86E0800F550BD6FBE6BA2
:10308000BB51BD27BC51BE23BE5104E10A0EBD5D3C
:10309000D8A0DAD76100DCF6D9F46100E0F6DAF402
:1030A000DFC4F6F4250EF76E000EF86E0800F5503A
:1030B0002E0AD8A475D0000EED6F000EEC6F6100E3
:1030C000DCF6D9F46100E0F6DAF4DF2A6100DCF620
:1030D000D9F46100E0F6DAF4DFC4F6F4250EF76EF9
:1030E000000EF86E0800F5502A0AD8A424D061001A
:1030F000DCF6D9F46100E0F6DAF4DF2A6100E4F6E8
:10310000D9F46100E8F6DAF461007CF3BBF5020E55
:10311000DE2661007CF3BCF5000EDD226100ECF6DA
:10312000D9F46100F0F6DAF4610078F3ECF56100AF
:1031300074F3EDF535D06100DCF6D9F46100E0F60A
:10314000DAF4DF501E6E61EC21F01EC5ECF51FC5F0
:10315000EDF507D06100DCF6D9F46100E0F6DAF4B1
:10316000DF2AD00E0501BB6FFF0EBC6F6100DCF6DD
:10317000D9F46100E0F6DAF4DFC4F6F4250EF76E58
:10318000000EF86E0800F550BD6FBE6BBB51BD2739
:10319000BC51BE23BE5104E10A0EBD5DD8A0DAD7F2
:1031A0006100DCF6D9F46100E0F6DAF4DFC4F6F48D
:1031B000250EF76E000EF86E0800F5501D6E1E6AA3
:1031C00040EC26F01D50C36FC351D8B435D0610018
:1031D000DCF6D9F46100E0F6DAF4DF50BB6F010EE3
:1031E000BB276100ECF6F6F4250EF76E000EF86EC4
:1031F0000800F5501D6E1E6A40EC26F01D50C46F8D
:10320000C451D8B419D06100DCF6D9F46100E0F6FD
:10321000DAF4DF50BB6F020EBB276100ECF6F6F468
:10322000250EF76E000EF86E0800F5501D6E1E6A32
:1032300040EC26F01D50C56F660EC319D8A44ED0C1
:103240006100DCF6D9F46100E0F6DAF4DFC4F6F4EC
:10325000250EF76E000EF86E08006100D4F3C6F577
:103260006100DCF6D9F46100E0F6DAF4DF2A6100EF
:10327000E4F6D9F46100E8F6DAF461007CF3BBF51A
:10328000040EDE2661007CF3BCF5000EDD22610039
:10329000ECF6D9F46100F0F6DAF4610078F3BFF5EA
:1032A000610078F3C0F5610078F3C1F5610078F34F
:1032B000C2F5B5C577F5B6C578F5BFC579F5C0C512
:1032C0007AF5C1C57BF5C2C57CF5C6C57DF5A7EC11
:1032D00012F077C5B5F578C5B6F51200C30E176EB6
:1032E000050E186E4A0E196E000E1B6E020E1A6E37
:1032F0002FEC23F017501810D8A470D06100DCF622
:10330000D9F46100E0F6DAF4DF50BB6F010EBB27A1
:103310006100ECF6F6F4250EF76E000EF86E08006C
:103320006100D4F3C6F5BF0EBB6FFF0EBC6F61002A
:10333000DCF6D9F46100E0F6DAF4DFC4F6F4250E29
:10334000F76E000EF86E0800F550BD6FBE6BBB51F6
:10335000BD27BC51BE23BE5102E11A0EBD5D610006
:10336000E4F6D9F46100E8F6DAF461007CF3BBF529
:10337000040EDE2661007CF3BCF5000EDD22610048
:10338000ECF6D9F46100F0F6DAF4610078F3BFF5F9
:10339000610078F3C0F5610078F3C1F5610078F35E
:1033A000C2F56100DCF6D9F46100E0F6DAF4020E51
:1033B000DF26B5C577F5B6C578F5BFC579F5C0C5C3
:1033C0007AF5C1C57BF5C2C57CF5C6C57DF5A7EC10
:1033D00012F077C5B5F578C5B6F512006100DCF6D8
:1033E000D9F46100E0F6DAF4DFC4F6F4250EF76EE6
:1033F000000EF86E0800F550250AD8A417D0610019
:10340000DCF6D9F46100E0F6DAF4DF2A000E196E7A
:10341000250E186EB5C51AF5B6C51BF542EC25F09C
:10342000000E0501B66F010EB56F12006100DCF6EB
:10343000D9F46100E0F6DAF4DF2A000EB66F000E70
:10344000B56F12006100DCF6D9F46100E0F6DAF441
:10345000DFC4F6F4250EF76E000EF86E0800F55086
:10346000186E196AB5C51AF5B6C51BF542EC25F0FC
:103470006100DCF6D9F46100E0F6DAF4DF2AD0D797
:103480001A50800B236E1A501A24256E19BE2580FF
:103490002550D8B40DD02528D8A408D0000E176E1A
:1034A000000E186E000E196E000E1A6E198E08D0DE
:1034B000000E176E000E186E000E196E000E1A6EBA
:1034C0001E50800B231A1E501E24246E1DBE248005
:1034D0002450D8B40DD02428D8A408D0000E1B6ED8
:1034E000000E1C6E000E1D6E000E1E6E1D8E08D08E
:1034F000000E1B6E000E1C6E000E1D6E000E1E6E6A
:103500002450D8B403D02550D8A409D0000E176E8B
:10351000000E186E000E196E000E1A6E12001D506D
:1035200017026100CCF32EF56100D0F32FF52E5079
:10353000266E276A286A296A2F502A6E2B6A2C6AFF
:103540002D6A1C5018026100CCF32EF56100D0F3F7
:103550002FF52E502626000E2722282229222F5012
:103560002A26000E2B222C222D221B50190261002C
:10357000CCF32EF56100D0F32FF52E502626000E49
:103580002722282229222F502A26000E2B222C22E5
:103590002D2228C529F527C528F526C527F5266A31
:1035A0001B5018026100CCF32EF56100D0F32FF50B
:1035B0002E5026262F502722000E2822000E2922C8
:1035C0001C5017026100CCF32EF56100D0F32FF5EB
:1035D0002E5026262F502722000E2822000E2922A8
:1035E00028C529F527C528F526C527F5266A1B50C5
:1035F00017026100CCF32EF56100D0F32FF52E50A9
:1036000026262F502722000E2822000E29221D5088
:1036100018026100CCF32EF56100D0F32FF52E5087
:103620002A262F502B22000E2C22000E2D221C5059
:1036300019026100CCF32EF56100D0F32FF52E5066
:103640002A262F502B22000E2C22000E2D221D5038
:1036500019026100CCF32EF56100D0F32FF52E5046
:103660001F6E2F50206E216A226A21C522F520C5C7
:1036700021F51FC520F51F6A1F502A2620502B2236
:1036800021502C2222502D2229502A26000E2B2296
:103690002C222D2228C529F527C528F526C527F572
:1036A000266A245025C51FF5206A1F26000E2022F9
:1036B000820E1F242E6EFF0E20202F6E0FD0D8906A
:1036C0002A362B362C362D3629BE2A80D89026361F
:1036D0002736283629362E06D8A02F062CAEEFD74F
:1036E000000E246E29AE17D0FF0E26141F6EFF0E9B
:1036F0002714206EFF0E2814216E7F0E2914226ECF
:103700001F50201021102210D8B403D0010E246EB7
:1037100002D02AB0FBD72450D8B41FD0010E2A26DD
:10372000000E2B222C222D222DA017D02AC51FF5EA
:103730002BC520F52CC521F52DC522F522342232CA
:10374000213220321F321FC52AF520C52BF521C595
:103750002CF522C52DF52E4A2F2A2FBE0DD02F5025
:1037600003E12E28D8A008D0000E2A6E000E2B6E82
:10377000800E2C6E7F0E20D02FBE05D02F500EE174
:103780002E04D8B00BD0000E2A6E000E2B6E000E49
:103790002C6E000E2D6E000E236E0FD02EC525F55B
:1037A000FF0E2A16FF0E2B167F0E2C16000E2D165E
:1037B00025B02C8ED89025302D6E23502D122AC581
:1037C00017F52BC518F52CC519F52DC51AF51200DE
:1037D0001A50800B236E1A501A24256E19BE2580AC
:1037E0002550D8B40DD02528D8A408D0000E176EC7
:1037F000000E186E000E196E000E1A6E198E06D08D
:10380000000E176E000E186E000E196E000E1A6E66
:103810001E50800B246E23502418D8A4238C1E50D5
:103820001E24246E1DBE24802450D8B40DD024281C
:10383000D8A408D0000E1B6E000E1C6E000E1D6E6C
:10384000000E1E6E1D8E06D0000E1B6E000E1C6E2E
:10385000000E1D6E000E1E6E2550245CD8B022D0C6
:1038600023AC02D0800E231A25C526F524C525F5E4
:1038700026C524F517C526F51BC517F526C51BF566
:1038800018C526F51CC518F526C51CF519C526F55D
:103890001DC519F526C51DF51AC526F51EC51AF54F
:1038A00026C51EF5000E266E255024C51FF5206A7C
:1038B0001F5E000E205A20BE2CD0205004E11A0EAC
:1038C0001F5CD8A026D01750181019101A10D8B4A1
:1038D00002D0010E01D0000E266E000E176E000EF3
:1038E000186E000E196E000E1A6E24C525F515D03F
:1038F00026A005D0D89026300109266E02D0D89097
:10390000263217B0268E1A341A321932183217326C
:10391000252A2450255CD8A0EBD723BC28D02550DD
:10392000D8A409D0000E176E000E186E000E196E86
:10393000000E1A6E12001B5017261C5018221D5024
:1039400019221E501A221AA071D026A005D0D89094
:1039500026300109266E02D0D890263217B0268E66
:103960001A341A32193218321732252A5FD01B50F6
:10397000175C1C5018581D5019581A50800A1F6E99
:103980001E50800A1F58D8B025D017501B5C1F6EE0
:1039900018501C58206E19501D58216E1A501E5870
:1039A000226EFF0E1F24176EFF0E2020186EFF0ED2
:1039B0002120196EFF0E22201A6E800E231A266C0B
:1039C0002650D8A40FD0010E1726000E1822192257
:1039D0001A2208D01B50175E1C50185A1D50195A35
:1039E0001E501A5A1750181019101A10D8A41CD0AB
:1039F0002650D8A419D0000E176E000E186E000EB7
:103A0000196E000E1A6E1200D89017361836193635
:103A10001A3626BE178026A002D0D88001D0D890B2
:103A200026362550D8A4250619AEEED7000E246EF2
:103A300026AE0BD026C51FF57F0E1F16D8B403D0B7
:103A4000010E246E02D017B0FBD72450D8B420D07A
:103A5000010E1726000E182219221A221AA018D0B9
:103A600017C51FF518C520F519C521F51AC522F58A
:103A700022342232213220321F321FC517F520C5D1
:103A800018F521C519F522C51AF52528D8A4252A27
:103A90002528D8B403D02550D8A40DD0000E176E19
:103AA000000E186E000E196E000E1A6E2550D8A466
:103AB00002D0000E236E25A002D0198E01D0199ECF
:103AC000D89025301A6E23BE1A8E17C517F518C563
:103AD00018F519C519F51AC51AF512002850800BEA
:103AE0000501646F285028246B6F27BE6B816B51D2
:103AF000D8B40DD06B29D8A408D0000E256E000EC6
:103B0000266E000E276E000E286E278E06D0000E41
:103B1000256E000E266E000E276E000E286E2C50AD
:103B2000800B641B2C502C246C6F2BBE6C816C5151
:103B3000D8B40DD06C29D8A408D0000E296E000E80
:103B40002A6E000E2B6E000E2C6E2B8E06D0000EF1
:103B5000296E000E2A6E000E2B6E000E2C6E295060
:103B60002A102B102C10D8A417D0000E256E000E92
:103B7000266E000E276E000E286E800E27127F0E16
:103B800028126451281225C525F526C526F527C516
:103B900027F528C528F512006B51D8A409D0000ECE
:103BA000256E000E266E000E276E000E286E120087
:103BB0006C516BC52DF52E6A2D5E000E2E5A7F0EB0
:103BC0002D24656F000E2E20666F25C560F526C575
:103BD00061F527C562F528C563F5000E256E000E58
:103BE000266E000E276E000E286E000E676F000E08
:103BF000686F000E696F000E6A6F000E6C6F28D040
:103C00006C51D8B411D0D8906037613762376337C0
:103C1000D89025362636273628366ABF2580D89094
:103C20006737683769376A372950605D2A506159AC
:103C30002B5062592C506359D8A009D06A8D295055
:103C4000605F2A50615B2B50625B2C50635B6C2B76
:103C5000190E6C65D5D76051611162116311D8B42A
:103C600011D067810FD0D8902536263627362836D2
:103C70006ABF2580D8906737683769376A37650724
:103C8000D8A0660727AEEFD7000E6C6F6AAF17D0CB
:103C9000FF0E67152D6EFF0E68152E6EFF0E69154F
:103CA0002F6E7F0E6A15306E2D502E102F10301093
:103CB000D8B403D0010E6C6F02D025B0FBD76C5185
:103CC000D8B41FD0010E2526000E26222722282236
:103CD00028A017D025C52DF526C52EF527C52FF50B
:103CE00028C530F5303430322F322E322D322DC5EA
:103CF00025F52EC526F52FC527F530C528F5654BCA
:103D0000662B66BF10D0665103E16529D8A00BD0A1
:103D1000000E666F6569000E256E000E266E000EA1
:103D2000276E000E286E66BF05D0665111E165054D
:103D3000D8B00ED0000E666F000E656F000E256EB7
:103D4000000E266E000E276E000E286E000E646FA9
:103D500065C56BF56BA102D0278E01D0279ED89048
:103D60006B31286E0ED7080E0001B16F040120914F
:103D7000C280CA902093C292CA822095C294CA94EB
:103D8000000E086F0969000EBF6E0F0EC76E000EA1
:103D9000106FDF0E116FC868000E186F000EC16E35
:103DA000000EC96E000E006F01698F0EC66E00997D
:103DB000BE98C698009BBE9AC69A410E0201236F18
:103DC000040120952195CA949F0E536F020E546FE3
:103DD000000E556F040E576F5691568B568F010E7D
:103DE0000201D56FA00ED46FD189D18B0401009F41
:103DF000018FC68E070E0201766F0401009DBE8CF6
:103E0000C69C260E0201076FD28F030E0001846F3D
:103E1000D40E856F020E866F000E8C6F030E896FB5
:103E2000000E886F848F310E02010D6F320E0F6FFE
:103E3000330E056F030E0001916FD40E926F020EC8
:103E4000936F000E996F030E966F000E956F918F12
:103E5000340E02010E6F350E106F360E066F900E87
:103E600003011B6F3C0E196F800E1A6F0401158B36
:103E70005351176E5451186E5551196E1A6A000E2F
:103E8000C1EC20F017C525F518C526F519C527F58D
:103E90001AC528F5C20E296E370E2A6E860E2B6EB5
:103EA000420E2C6E6EEC1DF025C5D4F526C5D5F559
:103EB00027C5D6F528C5D7F5110ECD6FD4C5CEF5DB
:103EC000D5C5CFF5D6C5D0F5D7C5D1F54CEC27F083
:103ED000550E0401596FAA0E596F5991080E5D6F66
:103EE000000E5E6F000E5F6F550E596FAA0E596F70
:103EF0005981000E176E0F0E186E000E196E0F0E00
:103F00005DEC26F0010E176E0A0E186E010E196E8A
:103F10000A0E5DEC26F0070E176E0B0E186E070EDC
:103F2000196E0B0E5DEC26F0010E176E0C0E186E5E
:103F3000010E196E0C0E5DEC26F0000E176E090EC8
:103F4000186E000E196E090E5DEC26F0000E176E4D
:103F50000F0E26EC27F0000E176E0A0E26EC27F047
:103F6000070E176E0B0E26EC27F0010E176E0C0EC7
:103F700026EC27F0000E176E090E26EC27F0000E37
:103F8000176E010E26EC27F0000E176E020E26ECBF
:103F900027F0000E176E030E26EC27F0000E176EAA
:103FA000040E26EC27F0000E176E050E26EC27F007
:103FB000000E176E060E26EC27F0000E176E070E89
:103FC00026EC27F0000E176E080E26EC27F0D68E92
:103FD000A780A18E9E8EFFD73BC573F53CC574F5B7
:103FE0003DC575F53EC576F531C573F532C574F539
:103FF00033C575F534C576F5810E356EFF0E366E18
:1040000073C537F574C538F575C539F576C53AF514
:10401000180E05D0D8903A32393238323732E82E7D
:10402000F9D737503524716F000E3620726F72BF8A
:104030000FD0725104E1170E715DD8A009D031C5BF
:1040400031F532C532F533C533F534C534F51200D8
:1040500072BF5CD071C535F5FF0E366EFF0E376E40
:104060007F0E386E000E396E356601D007D03934B8
:104070003932383237323632352EF6D736C56DF50D
:1040800037C56EF538C56FF539C570F505016D5149
:104090007315356E6E517415366E6F517515376E1A
:1040A00070517615386E3550361037103810D8B438
:1040B000C6D773C535F574C536F575C537F576C5FC
:1040C00038F5200E05D0D8903832373236323532B6
:1040D000E82EF9D73550D8B408D06D5173276E51FA
:1040E00074236F517523705176236D1D356E6E1DCF
:1040F000366E6F1D376E701D386E35507317365023
:104100007417375075173850761732D073C535F598
:1041100074C536F575C537F576C538F5200E05D06A
:10412000D8903832373236323532E82EF9D7356604
:1041300008D0000E736F000E746F000E756F000EC6
:1041400016D0D8907335356E7435366E7535376E3A
:104150007635386E3550361037103810D8B408D050
:10416000000E736F000E746F800E756FBF0E766F4A
:1041700073C531F574C532F575C533F576C534F5BB
:1041800012001F6E1F50D8A41AAE1AD017C51BF507
:1041900018C51CF519C51DF51AC51EF51B1E1C1EDC
:1041A0001D1E1E1E1B2A000E1C221D221E221BC5A8
:1041B00021F51CC522F51DC523F51EC524F508D023
:1041C00017C521F518C522F519C523F51AC524F51B
:1041D0001750181019101A10D8A409D0000E176E15
:1041E000000E186E000E196E000E1A6E1200960E5A
:1041F000206E06D0202AD890243223322232213257
:10420000000E21141B6E000E22141C6E000E2314CF
:104210001D6EFE0E24141E6E1B501C101D101E1051
:10422000D8B40DD0E7D7202A010E2126000E222275
:1042300023222422D8902432233222322132000E2B
:1042400021141B6E000E22141C6E000E23141D6E12
:10425000FF0E24141E6E1B501C101D101E10D8B40F
:1042600007D0E1D72006D8902136223623362436CF
:1042700023BE03D0020E2060F5D720A0239ED89045
:10428000203220C51BF51C6A1D6A1E6A1BC51EF55F
:104290001D6A1C6A1B6A1B5021121C5022121D50E1
:1042A00023121E5024121F50D8A41AAE01D0248EFF
:1042B00021C517F522C518F523C519F524C51AF52A
:1042C0001200000E276E000E266E000E256E000EE8
:1042D000246E01D01E2A610078F4F6F4250EF76EE4
:1042E000000EF86E0800F550200AD8B4F3D7F70E88
:1042F000206EFF0E216E610078F4F6F4250EF76E45
:10430000000EF86E0800F550226E236A2050222617
:104310002150232223500BE1050E225CD8B007D098
:10432000D9D7000E256E010E246E1E2A34D06100EE
:1043300078F4F6F4250EF76E000EF86E0800F550CE
:10434000206E216A2150000AD8A425D020502B0AC3
:10435000D8B4EBD7060AD8B4E4D71DD026C517F5D4
:1043600027C518F5000E1A6E0A0E196E11EC27F00B
:10437000610078F4F6F4250EF76E000EF86E080072
:10438000F550175E000E185A300E1724266E000ED8
:104390001820276ECAD7D00E206EFF0E216E610046
:1043A00078F4F6F4250EF76E000EF86E0800F5505E
:1043B000226E236A2050222621502322235004E11A
:1043C0000A0E225CD8A0CAD724502510D8A40DD03C
:1043D00026C520F527C521F5201E211E204A212AA9
:1043E00020C51EF521C51FF5120026C51EF527C5DF
:1043F0001FF51200000E30140501606F000E31141D
:10440000616F800E3214626F7F0E3314636F6051E0
:10441000611162116311D8A408D0000E306E000E35
:10442000316E000E326E000E336E000E3414606F6B
:10443000000E3514616F800E3614626F7F0E3714D4
:10444000636F6051611162116311D8A408D0000E2E
:10445000346E000E356E000E366E000E376E33AEC3
:1044600009D0306C311ED8B0312A321ED8B0322A71
:10447000800E335637AE09D0346C351ED8B0352A8D
:10448000361ED8B0362A800E3756000E301A000E6F
:10449000311A000E321A800E331A000E341A000E32
:1044A000351A000E361A800E371A3450305C3550EB
:1044B00031583650325837503358D8B002D0D8908F
:1044C0001200D88012003FC521F540C522F541C534
:1044D00023F542C524F517C521F518C522F519C5E0
:1044E00023F51AC524F521C51BF522C51CF523C5E6
:1044F0001DF524C51EF5180E05D0D8901E321D32AC
:104500001C321B32E82EF9D71B501F6E206A1F5039
:104510002010D8A419D0D89021341B6E22341C6EE0
:1045200023341D6E24341E6E1B501C101D101E10D3
:10453000D8A405D0000E186E020E176E1200000EE1
:10454000186E030E176E12001F282010D8A41CD05E
:1045500021C51BF522C51CF523C51DF524C51EF577
:10456000090ED8901B361C361D361E36E82EF9D79C
:104570001B501C101D101E10D8A402D0010E01D01B
:10458000000E176E186A1200000E186E040E176ED9
:02459000120017
:104594006100D8F313F56100DCF314F56100E0F376
:1045A40015F56100D4F316F5CE500F0B496ED80EF5
:1045B4004924D96EDA6A050EDA22DF50C16E4950F9
:1045C400010F116E610044F4F6F4250EF76E000E2F
:1045D400F86E08006100D4F30FF5050E39EC27F0EE
:1045E400610004F311F5113A0F0E11161150010F69
:1045F400126E610048F4F6F4250EF76E000EF86EA4
:1046040008006100D4F30FF5020E39EC27F06100C5
:1046140004F311F50F0E11161150010F126E610003
:1046240048F4F6F4250EF76E000EF86E08006100EB
:10463400D4F30FF5010E39EC27F0AE9E0401179B5D
:10464400610058F4F5F4610054F4F8F4610050F496
:10465400F7F461004CF4F6F4110017C51DF518C504
:104664001EF519C51FF51A06D8A01B061A280EE157
:104674001B28D8A40BD0000E186E000E176E120063
:104684001D4A1E2A1F2A1A06D8A01B06610074F4AC
:10469400D9F4610078F4DAF4DF50D8B424D061009E
:1046A4007CF4F6F4250EF76E000EF86E0800F55053
:1046B4000009D8B418D01A501B10D8B414D0610013
:1046C40074F4D9F4610078F4DAF4DF501C6E6100FC
:1046D4007CF4F6F4250EF76E000EF86E0800F55023
:1046E4001C18D8B4CDD7610074F4D9F4610078F4FF
:1046F400DAF4DF501C6E61007CF4F6F4250EF76EDC
:10470400000EF86E0800F5501C5C176E186AD8A0ED
:104714001806120019341A34206E2050D8A409D077
:10472400000E176E000E186E000E196E000E1A6E33
:10473400120017C51BF518C51CF519C51DF51AC5BA
:104744001EF5200E05D0D8901E321D321C321B32AD
:10475400E82EF9D71B501F6E198EFF0E1716FF0E89
:104764001816FF0E1916000E1A16960E205E20AEAD
:104774000DD02050800A970FD8A0D2D7D8901A32E3
:10478400193218321732203EF9D70DD01F0E20648B
:1047940007D0C6D7D8901736183619361A362006D9
:1047A4002050D8A4F7D71F50D8B408D01A1E191E09
:1047B400181E176C000E182219221A2217C517F595
:0E47C40018C518F519C519F51AC51AF5120011
:1047D400D80E4624D96EDA6A050EDA22DF50096E45
:1047E400E00E4624D96EDA6A050EDA22DF500A6E2C
:1047F400CE500F0B0C6E46280D6E45280E6E0EC55E
:104804000BF545500C18D8A403D0000E0E6E13D02F
:104814000C50056E066A4550076E086A080E072696
:10482400000E08220550071806E106500818D8A4FF
:1048340002D0000E0B6E09C501F50DC502F50AC5BF
:1048440003F50D507AEC26F0000E016E0BC502F54F
:10485400000E036E0E507AEC26F04650FD0F070B47
:10486400456E462A070E4616B19E110043A00AD093
:104874002AC521F52BC522F528C523F529C524F51C
:1048840097EC26F02DBE05D02CC531F52DC532F59B
:1048940004D0000E326E000E316E000E306E000E2B
:1048A4002F6E0CD0000E196E200E186E28C51AF546
:1048B40029C51BF542EC25F02F4A302A31502F5CD4
:1048C4003050800A2E6E3250800A2E58D8A0EAD773
:1048D40043B00AD02AC521F52BC522F528C523F5F6
:1048E40029C524F597EC26F02AC517F52BC518F52C
:1048F400E3EC26F031501724286E32501820296E2C
:104904001200000E17141F6E000E1814206E800E75
:104914001914216E7F0E1A14226E1F5020102110BC
:104924002210D8A408D0000E176E000E186E000EC8
:10493400196E000E1A6E000E1B141F6E000E1C144E
:10494400206E800E1D14216E7F0E1E14226E1F50C9
:10495400201021102210D8A408D0000E1B6E000EC7
:104964001C6E000E1D6E000E1E6E1B5017180AE101
:104974001C50181807E11D50191804E11E501A188C
:10498400D8B402D0D8901200D8801200000E1C6E49
:104994001AAE06D0196C1A1ED8B01A2A010E1C6E53
:1049A40018AE06D0176C181ED8B0182A010E1C1A9F
:1049B400000E1E6E000E1D6E19501A10D8B41CD0B5
:1049C400010E1B6E04D0D89019361A361B2A1AAE63
:1049D400FAD7D8901D361E361950175C1A5018583D
:1049E400D8A005D01950175E1A50185A1D80D890B7
:1049F4001A3219321B2EEDD71C50D8B404D01D6CBA
:104A04001E1ED8B01E2A1DC517F51EC518F51200A6
:104A1400000E1C6E18AE06D0176C181ED8B0182ADB
:104A2400010E1C6E1AAE04D0196C1A1ED8B01A2AC4
:104A340019501A10D8B418D0010E1B6E04D0D89097
:104A440019361A361B2A1AAEFAD71950175C1A509F
:104A54001858D8A004D01950175E1A50185AD89074
:104A64001A3219321B2EF1D71C50D8B404D0176C4B
:104A7400181ED8B0182A17C517F518C518F512004E
:104A84001A501B10D8B404D01A501B10D8A404D048
:104A9400185065EC27F0120020EE09F01A50D926C0
:104AA4001B50DA22DE50DE10D8B416D020EE09F006
:104AB4001A50D9261B50DA2210EE03F01A50E126C0
:104AC4001B50E222DE50E65CE650800A206EDE5087
:104AD400800A2058D8B0120020EE03F01A50D926CC
:104AE4001B50DA22DE2A000EDD22120019C51DF544
:104AF4001AC51EF517C51FF518C520F51D501B6EE8
:104B04001E501C6E1D4A1E2A61006CF4F6F46100EE
:104B140070F4F7F4000EF86E61007CF4D9F46100CF
:104B240080F4DAF41F4A202A240EF76403D0080024
:104B3400F55005D0F6C4E1F4F7C4E2F4E750DF6EB3
:104B4400DF50D8B41200DAD7BA0EF66E4E0EF76EF6
:104B5400000EF86E01EED8F110EE10F00900F5C465
:104B6400EEF4E550E150FAE101EE00F2500EEE6A87
:104B7400E806FDE10501ED6BEC6BEB6BEA6BE96BB1
:104B8400E86B01EE3BF10F0EEE6AE806FDE104016D
:104B9400080E5D6F000E5E6F000E5F6F0001B3EFD5
:104BA4001EF0C9C5CCF5000EE96F000EE86F13D0F6
:104BB400C7C5B5F5C8C5B6F5CC0EB76F050EB86F49
:104BC400CAC5B9F5CBC5BAF5B7EC17F00501B551AF
:104BD400E827B651E923610030F7F6F4250EF76EA5
:104BE400000EF86E0800F5500009D8A4E1D7E8C516
:104BF400C7F5E9C5C8F51200000E341A000E351ABF
:104C0400000E361A800E371A30C517F531C518F55F
:104C140032C519F533C51AF534C51BF535C51CF570
:104C240036C51DF537C51EF5E8EC1BF017C530F584
:104C340018C531F519C532F51AC533F51200010E40
:104C44001D6E200E17181810D8B414D0F70E196E54
:104C5400FF0E1A6E17C51BF518C51CF519501B2637
:104C64001A501C221C5004E1050E1B5CD8A002D073
:104C7400000E1D6E1DC517F5186A1200BF0E1F6EBB
:104C8400FF0E206E1DC521F51EC522F51F502126DD
:104C94002050222222500AE11A0E215CD8B006D0FC
:104CA400200E1D101D6E1E501E6E12001DC51DF51A
:104CB4001EC51EF512001A6E000186BFFDD7000E38
:104CC400836F040E826F86BFFED7610060F481F0AB
:104CD40086BFFED7610064F481F086BFFED7610011
:104CE40068F481F086BFFED761005CF481F01200A5
:104CF400046E000186BFFDD7000E836F040E826F21
:104D040086BFFED7610008F481F086BFFED761003C
:104D14000CF481F086BFFED7610010F481F086BFE9
:104D2400FED7610004F481F01200000E276E000E1D
:104D3400266E0BD025C518F5196A23C51AF524C5A6
:104D44001BF542EC25F0264A272A26502124D96E49
:104D540027502220DA6EDF50256E2550D8B4120079
:104D6400E9D7BF0E196EFF0E1A6E17C51BF518C5CD
:104D74001CF519501B261A501C221C5006E11A0E51
:104D84001B5CD8B002D0010E01D0000E176E186A59
:104D94001200D00E196EFF0E1A6E17C51BF518C53A
:104DA4001CF519501B261A501C221C5006E10A0E31
:104DB4001B5CD8B002D0010E01D0000E176E186A29
:104DC400120017C519F518C51AF502D0174A182A82
:104DD40061005CF4D9F4610060F4DAF4DF50D8A423
:104DE400F5D71950175C176E1A501858186E120020
:104DF4001750181019101A10D8B408D0000E171A2A
:104E0400000E181A000E191A800E1A1A17C517F573
:104E140018C518F519C519F51AC51AF51200175051
:104E240019026100CCF31BF56100D0F31CF5175097
:104E34001A02F3501C2618501902F3501C261BC5E5
:104E440017F51CC518F51200186E000193BFFDD7A5
:104E5400000E906F020E8F6F93BFFED7610060F457
:104E64008EF093BFFED761005CF48EF01200106EDA
:104E7400000193BFFDD7000E906F020E8F6F93BF9A
:104E8400FED7610040F48EF093BFFED761003CF47E
:104E94008EF01200CE0ED26F050ED36F000EC76FC8
:104EA400000EC86FCDC5C9F5D20ECA6F050ECB6F03
:104EB400D3EC25F01200B3B6BCB8B8BCB6B3B1F0AD
:104EC400000000000000176EB7A2FED761005CF47A
:064ED400C9F212001100FA
:020000040020DA
:10000000FFFFFFFFFFFFFFFFFFFFFFFFFFFFFFFF00
:10001000FFFFFFFFFFFFFFFFFFFFFFFFFFFFFFFFF0
:10002000FFFFFFFFFFFFFFFFFFFFFFFFFFFFFFFFE0
:10003000FFFFFFFFFFFFFFFFFFFFFFFFFFFFFFFFD0
:020000040030CA
:080000008CFFFFF79FFFFFFFDB
:01000900FFF7
:00000001FF
